{
  "_format": "hh-sol-artifact-1",
  "contractName": "NFT",
  "sourceName": "src/backend/contracts/NFT.sol",
  "abi": [
    {
      "inputs": [
        {
          "internalType": "string",
          "name": "_collectionName",
          "type": "string"
        },
        {
          "internalType": "string",
          "name": "_collectionSymbol",
          "type": "string"
        }
      ],
      "stateMutability": "nonpayable",
      "type": "constructor"
    },
    {
      "anonymous": false,
      "inputs": [
        {
          "indexed": true,
          "internalType": "address",
          "name": "owner",
          "type": "address"
        },
        {
          "indexed": true,
          "internalType": "address",
          "name": "approved",
          "type": "address"
        },
        {
          "indexed": true,
          "internalType": "uint256",
          "name": "tokenId",
          "type": "uint256"
        }
      ],
      "name": "Approval",
      "type": "event"
    },
    {
      "anonymous": false,
      "inputs": [
        {
          "indexed": true,
          "internalType": "address",
          "name": "owner",
          "type": "address"
        },
        {
          "indexed": true,
          "internalType": "address",
          "name": "operator",
          "type": "address"
        },
        {
          "indexed": false,
          "internalType": "bool",
          "name": "approved",
          "type": "bool"
        }
      ],
      "name": "ApprovalForAll",
      "type": "event"
    },
    {
      "anonymous": false,
      "inputs": [
        {
          "indexed": true,
          "internalType": "string",
          "name": "collectionName",
          "type": "string"
        },
        {
          "indexed": false,
          "internalType": "string",
          "name": "collectionSymbol",
          "type": "string"
        }
      ],
      "name": "CollectionCreated",
      "type": "event"
    },
    {
      "anonymous": false,
      "inputs": [
        {
          "indexed": true,
          "internalType": "address",
          "name": "from",
          "type": "address"
        },
        {
          "indexed": true,
          "internalType": "address",
          "name": "to",
          "type": "address"
        },
        {
          "indexed": true,
          "internalType": "uint256",
          "name": "tokenId",
          "type": "uint256"
        }
      ],
      "name": "Transfer",
      "type": "event"
    },
    {
      "inputs": [
        {
          "internalType": "address",
          "name": "to",
          "type": "address"
        },
        {
          "internalType": "uint256",
          "name": "tokenId",
          "type": "uint256"
        }
      ],
      "name": "approve",
      "outputs": [],
      "stateMutability": "nonpayable",
      "type": "function"
    },
    {
      "inputs": [
        {
          "internalType": "address",
          "name": "owner",
          "type": "address"
        }
      ],
      "name": "balanceOf",
      "outputs": [
        {
          "internalType": "uint256",
          "name": "",
          "type": "uint256"
        }
      ],
      "stateMutability": "view",
      "type": "function"
    },
    {
      "inputs": [
        {
          "internalType": "string",
          "name": "tokenURI",
          "type": "string"
        }
      ],
      "name": "createToken",
      "outputs": [
        {
          "internalType": "uint256",
          "name": "",
          "type": "uint256"
        }
      ],
      "stateMutability": "nonpayable",
      "type": "function"
    },
    {
      "inputs": [
        {
          "internalType": "uint256",
          "name": "tokenId",
          "type": "uint256"
        }
      ],
      "name": "getApproved",
      "outputs": [
        {
          "internalType": "address",
          "name": "",
          "type": "address"
        }
      ],
      "stateMutability": "view",
      "type": "function"
    },
    {
      "inputs": [
        {
          "internalType": "address",
          "name": "owner",
          "type": "address"
        },
        {
          "internalType": "address",
          "name": "operator",
          "type": "address"
        }
      ],
      "name": "isApprovedForAll",
      "outputs": [
        {
          "internalType": "bool",
          "name": "",
          "type": "bool"
        }
      ],
      "stateMutability": "view",
      "type": "function"
    },
    {
      "inputs": [],
      "name": "name",
      "outputs": [
        {
          "internalType": "string",
          "name": "",
          "type": "string"
        }
      ],
      "stateMutability": "view",
      "type": "function"
    },
    {
      "inputs": [],
      "name": "newItemId",
      "outputs": [
        {
          "internalType": "uint256",
          "name": "",
          "type": "uint256"
        }
      ],
      "stateMutability": "view",
      "type": "function"
    },
    {
      "inputs": [
        {
          "internalType": "uint256",
          "name": "tokenId",
          "type": "uint256"
        }
      ],
      "name": "ownerOf",
      "outputs": [
        {
          "internalType": "address",
          "name": "",
          "type": "address"
        }
      ],
      "stateMutability": "view",
      "type": "function"
    },
    {
      "inputs": [
        {
          "internalType": "address",
          "name": "from",
          "type": "address"
        },
        {
          "internalType": "address",
          "name": "to",
          "type": "address"
        },
        {
          "internalType": "uint256",
          "name": "tokenId",
          "type": "uint256"
        }
      ],
      "name": "safeTransferFrom",
      "outputs": [],
      "stateMutability": "nonpayable",
      "type": "function"
    },
    {
      "inputs": [
        {
          "internalType": "address",
          "name": "from",
          "type": "address"
        },
        {
          "internalType": "address",
          "name": "to",
          "type": "address"
        },
        {
          "internalType": "uint256",
          "name": "tokenId",
          "type": "uint256"
        },
        {
          "internalType": "bytes",
          "name": "data",
          "type": "bytes"
        }
      ],
      "name": "safeTransferFrom",
      "outputs": [],
      "stateMutability": "nonpayable",
      "type": "function"
    },
    {
      "inputs": [
        {
          "internalType": "address",
          "name": "operator",
          "type": "address"
        },
        {
          "internalType": "bool",
          "name": "approved",
          "type": "bool"
        }
      ],
      "name": "setApprovalForAll",
      "outputs": [],
      "stateMutability": "nonpayable",
      "type": "function"
    },
    {
      "inputs": [
        {
          "internalType": "bytes4",
          "name": "interfaceId",
          "type": "bytes4"
        }
      ],
      "name": "supportsInterface",
      "outputs": [
        {
          "internalType": "bool",
          "name": "",
          "type": "bool"
        }
      ],
      "stateMutability": "view",
      "type": "function"
    },
    {
      "inputs": [],
      "name": "symbol",
      "outputs": [
        {
          "internalType": "string",
          "name": "",
          "type": "string"
        }
      ],
      "stateMutability": "view",
      "type": "function"
    },
    {
      "inputs": [
        {
          "internalType": "uint256",
          "name": "tokenId",
          "type": "uint256"
        }
      ],
      "name": "tokenURI",
      "outputs": [
        {
          "internalType": "string",
          "name": "",
          "type": "string"
        }
      ],
      "stateMutability": "view",
      "type": "function"
    },
    {
      "inputs": [
        {
          "internalType": "address",
          "name": "from",
          "type": "address"
        },
        {
          "internalType": "address",
          "name": "to",
          "type": "address"
        },
        {
          "internalType": "uint256",
          "name": "tokenId",
          "type": "uint256"
        }
      ],
      "name": "transferFrom",
      "outputs": [],
      "stateMutability": "nonpayable",
      "type": "function"
    }
  ],
  "bytecode": "0x60806040523480156200001157600080fd5b506040516200323538038062003235833981810160405281019062000037919062000416565b8181816000908051906020019062000051929190620001c9565b5080600190805190602001906200006a929190620001c9565b5050506200009e604051806080016040528060438152602001620031f2604391398330620000f760201b62000b051760201c565b81604051620000ae9190620004e8565b60405180910390207fd487e125b04f25d075b575790a6498dccb391191998695355d3be7f16dc36dfa82604051620000e7919062000553565b60405180910390a250506200066c565b6200019b8383836040516024016200011293929190620005bc565b6040516020818303038152906040527f95ed0195000000000000000000000000000000000000000000000000000000007bffffffffffffffffffffffffffffffffffffffffffffffffffffffff19166020820180517bffffffffffffffffffffffffffffffffffffffffffffffffffffffff8381831617835250505050620001a060201b60201c565b505050565b60008151905060006a636f6e736f6c652e6c6f679050602083016000808483855afa5050505050565b828054620001d79062000636565b90600052602060002090601f016020900481019282620001fb576000855562000247565b82601f106200021657805160ff191683800117855562000247565b8280016001018555821562000247579182015b828111156200024657825182559160200191906001019062000229565b5b5090506200025691906200025a565b5090565b5b80821115620002755760008160009055506001016200025b565b5090565b6000604051905090565b600080fd5b600080fd5b600080fd5b600080fd5b6000601f19601f8301169050919050565b7f4e487b7100000000000000000000000000000000000000000000000000000000600052604160045260246000fd5b620002e28262000297565b810181811067ffffffffffffffff82111715620003045762000303620002a8565b5b80604052505050565b60006200031962000279565b9050620003278282620002d7565b919050565b600067ffffffffffffffff8211156200034a5762000349620002a8565b5b620003558262000297565b9050602081019050919050565b60005b838110156200038257808201518184015260208101905062000365565b8381111562000392576000848401525b50505050565b6000620003af620003a9846200032c565b6200030d565b905082815260208101848484011115620003ce57620003cd62000292565b5b620003db84828562000362565b509392505050565b600082601f830112620003fb57620003fa6200028d565b5b81516200040d84826020860162000398565b91505092915050565b6000806040838503121562000430576200042f62000283565b5b600083015167ffffffffffffffff81111562000451576200045062000288565b5b6200045f85828601620003e3565b925050602083015167ffffffffffffffff81111562000483576200048262000288565b5b6200049185828601620003e3565b9150509250929050565b600081519050919050565b600081905092915050565b6000620004be826200049b565b620004ca8185620004a6565b9350620004dc81856020860162000362565b80840191505092915050565b6000620004f68284620004b1565b915081905092915050565b600082825260208201905092915050565b60006200051f826200049b565b6200052b818562000501565b93506200053d81856020860162000362565b620005488162000297565b840191505092915050565b600060208201905081810360008301526200056f818462000512565b905092915050565b600073ffffffffffffffffffffffffffffffffffffffff82169050919050565b6000620005a48262000577565b9050919050565b620005b68162000597565b82525050565b60006060820190508181036000830152620005d8818662000512565b90508181036020830152620005ee818562000512565b9050620005ff6040830184620005ab565b949350505050565b7f4e487b7100000000000000000000000000000000000000000000000000000000600052602260045260246000fd5b600060028204905060018216806200064f57607f821691505b6020821081141562000666576200066562000607565b5b50919050565b612b76806200067c6000396000f3fe608060405234801561001057600080fd5b50600436106100f45760003560e01c806345576f9411610097578063a22cb46511610066578063a22cb46514610297578063b88d4fde146102b3578063c87b56dd146102cf578063e985e9c5146102ff576100f4565b806345576f94146101e95780636352211e1461021957806370a082311461024957806395d89b4114610279576100f4565b8063081812fc116100d3578063081812fc14610165578063095ea7b31461019557806323b872dd146101b157806342842e0e146101cd576100f4565b80620ed58f146100f957806301ffc9a71461011757806306fdde0314610147575b600080fd5b61010161032f565b60405161010e9190611a5e565b60405180910390f35b610131600480360381019061012c9190611ae5565b610335565b60405161013e9190611b2d565b60405180910390f35b61014f610417565b60405161015c9190611be1565b60405180910390f35b61017f600480360381019061017a9190611c2f565b6104a9565b60405161018c9190611c9d565b60405180910390f35b6101af60048036038101906101aa9190611ce4565b6104ef565b005b6101cb60048036038101906101c69190611d24565b610607565b005b6101e760048036038101906101e29190611d24565b610667565b005b61020360048036038101906101fe9190611eac565b610687565b6040516102109190611a5e565b60405180910390f35b610233600480360381019061022e9190611c2f565b6106ea565b6040516102409190611c9d565b60405180910390f35b610263600480360381019061025e9190611ef5565b61079c565b6040516102709190611a5e565b60405180910390f35b610281610854565b60405161028e9190611be1565b60405180910390f35b6102b160048036038101906102ac9190611f4e565b6108e6565b005b6102cd60048036038101906102c8919061202f565b6108fc565b005b6102e960048036038101906102e49190611c2f565b61095e565b6040516102f69190611be1565b60405180910390f35b610319600480360381019061031491906120b2565b610a71565b6040516103269190611b2d565b60405180910390f35b60085481565b60007f80ac58cd000000000000000000000000000000000000000000000000000000007bffffffffffffffffffffffffffffffffffffffffffffffffffffffff1916827bffffffffffffffffffffffffffffffffffffffffffffffffffffffff1916148061040057507f5b5e139f000000000000000000000000000000000000000000000000000000007bffffffffffffffffffffffffffffffffffffffffffffffffffffffff1916827bffffffffffffffffffffffffffffffffffffffffffffffffffffffff1916145b80610410575061040f82610ba4565b5b9050919050565b60606000805461042690612121565b80601f016020809104026020016040519081016040528092919081815260200182805461045290612121565b801561049f5780601f106104745761010080835404028352916020019161049f565b820191906000526020600020905b81548152906001019060200180831161048257829003601f168201915b5050505050905090565b60006104b482610c0e565b6004600083815260200190815260200160002060009054906101000a900473ffffffffffffffffffffffffffffffffffffffff169050919050565b60006104fa826106ea565b90508073ffffffffffffffffffffffffffffffffffffffff168373ffffffffffffffffffffffffffffffffffffffff16141561056b576040517f08c379a0000000000000000000000000000000000000000000000000000000008152600401610562906121c5565b60405180910390fd5b8073ffffffffffffffffffffffffffffffffffffffff1661058a610c59565b73ffffffffffffffffffffffffffffffffffffffff1614806105b957506105b8816105b3610c59565b610a71565b5b6105f8576040517f08c379a00000000000000000000000000000000000000000000000000000000081526004016105ef90612257565b60405180910390fd5b6106028383610c61565b505050565b610618610612610c59565b82610d1a565b610657576040517f08c379a000000000000000000000000000000000000000000000000000000000815260040161064e906122e9565b60405180910390fd5b610662838383610daf565b505050565b610682838383604051806020016040528060008152506108fc565b505050565b60006106936007611016565b61069d600761102c565b6008819055506106af3360085461103a565b6106bb60085483611058565b6106e0604051806060016040528060258152602001612b1c60259139600854336110cc565b6008549050919050565b6000806002600084815260200190815260200160002060009054906101000a900473ffffffffffffffffffffffffffffffffffffffff169050600073ffffffffffffffffffffffffffffffffffffffff168173ffffffffffffffffffffffffffffffffffffffff161415610793576040517f08c379a000000000000000000000000000000000000000000000000000000000815260040161078a90612355565b60405180910390fd5b80915050919050565b60008073ffffffffffffffffffffffffffffffffffffffff168273ffffffffffffffffffffffffffffffffffffffff16141561080d576040517f08c379a0000000000000000000000000000000000000000000000000000000008152600401610804906123e7565b60405180910390fd5b600360008373ffffffffffffffffffffffffffffffffffffffff1673ffffffffffffffffffffffffffffffffffffffff168152602001908152602001600020549050919050565b60606001805461086390612121565b80601f016020809104026020016040519081016040528092919081815260200182805461088f90612121565b80156108dc5780601f106108b1576101008083540402835291602001916108dc565b820191906000526020600020905b8154815290600101906020018083116108bf57829003601f168201915b5050505050905090565b6108f86108f1610c59565b838361116b565b5050565b61090d610907610c59565b83610d1a565b61094c576040517f08c379a0000000000000000000000000000000000000000000000000000000008152600401610943906122e9565b60405180910390fd5b610958848484846112d8565b50505050565b606061096982610c0e565b600060066000848152602001908152602001600020805461098990612121565b80601f01602080910402602001604051908101604052809291908181526020018280546109b590612121565b8015610a025780601f106109d757610100808354040283529160200191610a02565b820191906000526020600020905b8154815290600101906020018083116109e557829003601f168201915b505050505090506000610a13611334565b9050600081511415610a29578192505050610a6c565b600082511115610a5e578082604051602001610a46929190612443565b60405160208183030381529060405292505050610a6c565b610a678461134b565b925050505b919050565b6000600560008473ffffffffffffffffffffffffffffffffffffffff1673ffffffffffffffffffffffffffffffffffffffff16815260200190815260200160002060008373ffffffffffffffffffffffffffffffffffffffff1673ffffffffffffffffffffffffffffffffffffffff16815260200190815260200160002060009054906101000a900460ff16905092915050565b610b9f838383604051602401610b1d93929190612467565b6040516020818303038152906040527f95ed0195000000000000000000000000000000000000000000000000000000007bffffffffffffffffffffffffffffffffffffffffffffffffffffffff19166020820180517bffffffffffffffffffffffffffffffffffffffffffffffffffffffff83818316178352505050506113b3565b505050565b60007f01ffc9a7000000000000000000000000000000000000000000000000000000007bffffffffffffffffffffffffffffffffffffffffffffffffffffffff1916827bffffffffffffffffffffffffffffffffffffffffffffffffffffffff1916149050919050565b610c17816113dc565b610c56576040517f08c379a0000000000000000000000000000000000000000000000000000000008152600401610c4d90612355565b60405180910390fd5b50565b600033905090565b816004600083815260200190815260200160002060006101000a81548173ffffffffffffffffffffffffffffffffffffffff021916908373ffffffffffffffffffffffffffffffffffffffff160217905550808273ffffffffffffffffffffffffffffffffffffffff16610cd4836106ea565b73ffffffffffffffffffffffffffffffffffffffff167f8c5be1e5ebec7d5bd14f71427d1e84f3dd0314c0f7b2291e5b200ac8c7c3b92560405160405180910390a45050565b600080610d26836106ea565b90508073ffffffffffffffffffffffffffffffffffffffff168473ffffffffffffffffffffffffffffffffffffffff161480610d685750610d678185610a71565b5b80610da657508373ffffffffffffffffffffffffffffffffffffffff16610d8e846104a9565b73ffffffffffffffffffffffffffffffffffffffff16145b91505092915050565b8273ffffffffffffffffffffffffffffffffffffffff16610dcf826106ea565b73ffffffffffffffffffffffffffffffffffffffff1614610e25576040517f08c379a0000000000000000000000000000000000000000000000000000000008152600401610e1c9061251e565b60405180910390fd5b600073ffffffffffffffffffffffffffffffffffffffff168273ffffffffffffffffffffffffffffffffffffffff161415610e95576040517f08c379a0000000000000000000000000000000000000000000000000000000008152600401610e8c906125b0565b60405180910390fd5b610ea0838383611448565b610eab600082610c61565b6001600360008573ffffffffffffffffffffffffffffffffffffffff1673ffffffffffffffffffffffffffffffffffffffff1681526020019081526020016000206000828254610efb91906125ff565b925050819055506001600360008473ffffffffffffffffffffffffffffffffffffffff1673ffffffffffffffffffffffffffffffffffffffff1681526020019081526020016000206000828254610f529190612633565b92505081905550816002600083815260200190815260200160002060006101000a81548173ffffffffffffffffffffffffffffffffffffffff021916908373ffffffffffffffffffffffffffffffffffffffff160217905550808273ffffffffffffffffffffffffffffffffffffffff168473ffffffffffffffffffffffffffffffffffffffff167fddf252ad1be2c89b69c2b068fc378daa952ba7f163c4a11628f55a4df523b3ef60405160405180910390a461101183838361144d565b505050565b6001816000016000828254019250508190555050565b600081600001549050919050565b611054828260405180602001604052806000815250611452565b5050565b611061826113dc565b6110a0576040517f08c379a0000000000000000000000000000000000000000000000000000000008152600401611097906126fb565b60405180910390fd5b806006600084815260200190815260200160002090805190602001906110c79291906119a2565b505050565b6111668383836040516024016110e49392919061271b565b6040516020818303038152906040527fe3849f79000000000000000000000000000000000000000000000000000000007bffffffffffffffffffffffffffffffffffffffffffffffffffffffff19166020820180517bffffffffffffffffffffffffffffffffffffffffffffffffffffffff83818316178352505050506113b3565b505050565b8173ffffffffffffffffffffffffffffffffffffffff168373ffffffffffffffffffffffffffffffffffffffff1614156111da576040517f08c379a00000000000000000000000000000000000000000000000000000000081526004016111d1906127a5565b60405180910390fd5b80600560008573ffffffffffffffffffffffffffffffffffffffff1673ffffffffffffffffffffffffffffffffffffffff16815260200190815260200160002060008473ffffffffffffffffffffffffffffffffffffffff1673ffffffffffffffffffffffffffffffffffffffff16815260200190815260200160002060006101000a81548160ff0219169083151502179055508173ffffffffffffffffffffffffffffffffffffffff168373ffffffffffffffffffffffffffffffffffffffff167f17307eab39ab6107e8899845ad3d59bd9653f200f220920489ca2b5937696c31836040516112cb9190611b2d565b60405180910390a3505050565b6112e3848484610daf565b6112ef848484846114ad565b61132e576040517f08c379a000000000000000000000000000000000000000000000000000000000815260040161132590612837565b60405180910390fd5b50505050565b606060405180602001604052806000815250905090565b606061135682610c0e565b6000611360611334565b9050600081511161138057604051806020016040528060008152506113ab565b8061138a84611644565b60405160200161139b929190612443565b6040516020818303038152906040525b915050919050565b60008151905060006a636f6e736f6c652e6c6f679050602083016000808483855afa5050505050565b60008073ffffffffffffffffffffffffffffffffffffffff166002600084815260200190815260200160002060009054906101000a900473ffffffffffffffffffffffffffffffffffffffff1673ffffffffffffffffffffffffffffffffffffffff1614159050919050565b505050565b505050565b61145c83836117a5565b61146960008484846114ad565b6114a8576040517f08c379a000000000000000000000000000000000000000000000000000000000815260040161149f90612837565b60405180910390fd5b505050565b60006114ce8473ffffffffffffffffffffffffffffffffffffffff1661197f565b15611637578373ffffffffffffffffffffffffffffffffffffffff1663150b7a026114f7610c59565b8786866040518563ffffffff1660e01b815260040161151994939291906128ac565b602060405180830381600087803b15801561153357600080fd5b505af192505050801561156457506040513d601f19601f82011682018060405250810190611561919061290d565b60015b6115e7573d8060008114611594576040519150601f19603f3d011682016040523d82523d6000602084013e611599565b606091505b506000815114156115df576040517f08c379a00000000000000000000000000000000000000000000000000000000081526004016115d690612837565b60405180910390fd5b805181602001fd5b63150b7a0260e01b7bffffffffffffffffffffffffffffffffffffffffffffffffffffffff1916817bffffffffffffffffffffffffffffffffffffffffffffffffffffffff19161491505061163c565b600190505b949350505050565b6060600082141561168c576040518060400160405280600181526020017f300000000000000000000000000000000000000000000000000000000000000081525090506117a0565b600082905060005b600082146116be5780806116a79061293a565b915050600a826116b791906129b2565b9150611694565b60008167ffffffffffffffff8111156116da576116d9611d81565b5b6040519080825280601f01601f19166020018201604052801561170c5781602001600182028036833780820191505090505b5090505b600085146117995760018261172591906125ff565b9150600a8561173491906129e3565b60306117409190612633565b60f81b81838151811061175657611755612a14565b5b60200101907effffffffffffffffffffffffffffffffffffffffffffffffffffffffffffff1916908160001a905350600a8561179291906129b2565b9450611710565b8093505050505b919050565b600073ffffffffffffffffffffffffffffffffffffffff168273ffffffffffffffffffffffffffffffffffffffff161415611815576040517f08c379a000000000000000000000000000000000000000000000000000000000815260040161180c90612a8f565b60405180910390fd5b61181e816113dc565b1561185e576040517f08c379a000000000000000000000000000000000000000000000000000000000815260040161185590612afb565b60405180910390fd5b61186a60008383611448565b6001600360008473ffffffffffffffffffffffffffffffffffffffff1673ffffffffffffffffffffffffffffffffffffffff16815260200190815260200160002060008282546118ba9190612633565b92505081905550816002600083815260200190815260200160002060006101000a81548173ffffffffffffffffffffffffffffffffffffffff021916908373ffffffffffffffffffffffffffffffffffffffff160217905550808273ffffffffffffffffffffffffffffffffffffffff16600073ffffffffffffffffffffffffffffffffffffffff167fddf252ad1be2c89b69c2b068fc378daa952ba7f163c4a11628f55a4df523b3ef60405160405180910390a461197b6000838361144d565b5050565b6000808273ffffffffffffffffffffffffffffffffffffffff163b119050919050565b8280546119ae90612121565b90600052602060002090601f0160209004810192826119d05760008555611a17565b82601f106119e957805160ff1916838001178555611a17565b82800160010185558215611a17579182015b82811115611a165782518255916020019190600101906119fb565b5b509050611a249190611a28565b5090565b5b80821115611a41576000816000905550600101611a29565b5090565b6000819050919050565b611a5881611a45565b82525050565b6000602082019050611a736000830184611a4f565b92915050565b6000604051905090565b600080fd5b600080fd5b60007fffffffff0000000000000000000000000000000000000000000000000000000082169050919050565b611ac281611a8d565b8114611acd57600080fd5b50565b600081359050611adf81611ab9565b92915050565b600060208284031215611afb57611afa611a83565b5b6000611b0984828501611ad0565b91505092915050565b60008115159050919050565b611b2781611b12565b82525050565b6000602082019050611b426000830184611b1e565b92915050565b600081519050919050565b600082825260208201905092915050565b60005b83811015611b82578082015181840152602081019050611b67565b83811115611b91576000848401525b50505050565b6000601f19601f8301169050919050565b6000611bb382611b48565b611bbd8185611b53565b9350611bcd818560208601611b64565b611bd681611b97565b840191505092915050565b60006020820190508181036000830152611bfb8184611ba8565b905092915050565b611c0c81611a45565b8114611c1757600080fd5b50565b600081359050611c2981611c03565b92915050565b600060208284031215611c4557611c44611a83565b5b6000611c5384828501611c1a565b91505092915050565b600073ffffffffffffffffffffffffffffffffffffffff82169050919050565b6000611c8782611c5c565b9050919050565b611c9781611c7c565b82525050565b6000602082019050611cb26000830184611c8e565b92915050565b611cc181611c7c565b8114611ccc57600080fd5b50565b600081359050611cde81611cb8565b92915050565b60008060408385031215611cfb57611cfa611a83565b5b6000611d0985828601611ccf565b9250506020611d1a85828601611c1a565b9150509250929050565b600080600060608486031215611d3d57611d3c611a83565b5b6000611d4b86828701611ccf565b9350506020611d5c86828701611ccf565b9250506040611d6d86828701611c1a565b9150509250925092565b600080fd5b600080fd5b7f4e487b7100000000000000000000000000000000000000000000000000000000600052604160045260246000fd5b611db982611b97565b810181811067ffffffffffffffff82111715611dd857611dd7611d81565b5b80604052505050565b6000611deb611a79565b9050611df78282611db0565b919050565b600067ffffffffffffffff821115611e1757611e16611d81565b5b611e2082611b97565b9050602081019050919050565b82818337600083830152505050565b6000611e4f611e4a84611dfc565b611de1565b905082815260208101848484011115611e6b57611e6a611d7c565b5b611e76848285611e2d565b509392505050565b600082601f830112611e9357611e92611d77565b5b8135611ea3848260208601611e3c565b91505092915050565b600060208284031215611ec257611ec1611a83565b5b600082013567ffffffffffffffff811115611ee057611edf611a88565b5b611eec84828501611e7e565b91505092915050565b600060208284031215611f0b57611f0a611a83565b5b6000611f1984828501611ccf565b91505092915050565b611f2b81611b12565b8114611f3657600080fd5b50565b600081359050611f4881611f22565b92915050565b60008060408385031215611f6557611f64611a83565b5b6000611f7385828601611ccf565b9250506020611f8485828601611f39565b9150509250929050565b600067ffffffffffffffff821115611fa957611fa8611d81565b5b611fb282611b97565b9050602081019050919050565b6000611fd2611fcd84611f8e565b611de1565b905082815260208101848484011115611fee57611fed611d7c565b5b611ff9848285611e2d565b509392505050565b600082601f83011261201657612015611d77565b5b8135612026848260208601611fbf565b91505092915050565b6000806000806080858703121561204957612048611a83565b5b600061205787828801611ccf565b945050602061206887828801611ccf565b935050604061207987828801611c1a565b925050606085013567ffffffffffffffff81111561209a57612099611a88565b5b6120a687828801612001565b91505092959194509250565b600080604083850312156120c9576120c8611a83565b5b60006120d785828601611ccf565b92505060206120e885828601611ccf565b9150509250929050565b7f4e487b7100000000000000000000000000000000000000000000000000000000600052602260045260246000fd5b6000600282049050600182168061213957607f821691505b6020821081141561214d5761214c6120f2565b5b50919050565b7f4552433732313a20617070726f76616c20746f2063757272656e74206f776e6560008201527f7200000000000000000000000000000000000000000000000000000000000000602082015250565b60006121af602183611b53565b91506121ba82612153565b604082019050919050565b600060208201905081810360008301526121de816121a2565b9050919050565b7f4552433732313a20617070726f76652063616c6c6572206973206e6f7420746f60008201527f6b656e206f776e6572206e6f7220617070726f76656420666f7220616c6c0000602082015250565b6000612241603e83611b53565b915061224c826121e5565b604082019050919050565b6000602082019050818103600083015261227081612234565b9050919050565b7f4552433732313a2063616c6c6572206973206e6f7420746f6b656e206f776e6560008201527f72206e6f7220617070726f766564000000000000000000000000000000000000602082015250565b60006122d3602e83611b53565b91506122de82612277565b604082019050919050565b60006020820190508181036000830152612302816122c6565b9050919050565b7f4552433732313a20696e76616c696420746f6b656e2049440000000000000000600082015250565b600061233f601883611b53565b915061234a82612309565b602082019050919050565b6000602082019050818103600083015261236e81612332565b9050919050565b7f4552433732313a2061646472657373207a65726f206973206e6f74206120766160008201527f6c6964206f776e65720000000000000000000000000000000000000000000000602082015250565b60006123d1602983611b53565b91506123dc82612375565b604082019050919050565b60006020820190508181036000830152612400816123c4565b9050919050565b600081905092915050565b600061241d82611b48565b6124278185612407565b9350612437818560208601611b64565b80840191505092915050565b600061244f8285612412565b915061245b8284612412565b91508190509392505050565b600060608201905081810360008301526124818186611ba8565b905081810360208301526124958185611ba8565b90506124a46040830184611c8e565b949350505050565b7f4552433732313a207472616e736665722066726f6d20696e636f72726563742060008201527f6f776e6572000000000000000000000000000000000000000000000000000000602082015250565b6000612508602583611b53565b9150612513826124ac565b604082019050919050565b60006020820190508181036000830152612537816124fb565b9050919050565b7f4552433732313a207472616e7366657220746f20746865207a65726f2061646460008201527f7265737300000000000000000000000000000000000000000000000000000000602082015250565b600061259a602483611b53565b91506125a58261253e565b604082019050919050565b600060208201905081810360008301526125c98161258d565b9050919050565b7f4e487b7100000000000000000000000000000000000000000000000000000000600052601160045260246000fd5b600061260a82611a45565b915061261583611a45565b925082821015612628576126276125d0565b5b828203905092915050565b600061263e82611a45565b915061264983611a45565b9250827fffffffffffffffffffffffffffffffffffffffffffffffffffffffffffffffff0382111561267e5761267d6125d0565b5b828201905092915050565b7f45524337323155524953746f726167653a2055524920736574206f66206e6f6e60008201527f6578697374656e7420746f6b656e000000000000000000000000000000000000602082015250565b60006126e5602e83611b53565b91506126f082612689565b604082019050919050565b60006020820190508181036000830152612714816126d8565b9050919050565b600060608201905081810360008301526127358186611ba8565b90506127446020830185611a4f565b6127516040830184611c8e565b949350505050565b7f4552433732313a20617070726f766520746f2063616c6c657200000000000000600082015250565b600061278f601983611b53565b915061279a82612759565b602082019050919050565b600060208201905081810360008301526127be81612782565b9050919050565b7f4552433732313a207472616e7366657220746f206e6f6e20455243373231526560008201527f63656976657220696d706c656d656e7465720000000000000000000000000000602082015250565b6000612821603283611b53565b915061282c826127c5565b604082019050919050565b6000602082019050818103600083015261285081612814565b9050919050565b600081519050919050565b600082825260208201905092915050565b600061287e82612857565b6128888185612862565b9350612898818560208601611b64565b6128a181611b97565b840191505092915050565b60006080820190506128c16000830187611c8e565b6128ce6020830186611c8e565b6128db6040830185611a4f565b81810360608301526128ed8184612873565b905095945050505050565b60008151905061290781611ab9565b92915050565b60006020828403121561292357612922611a83565b5b6000612931848285016128f8565b91505092915050565b600061294582611a45565b91507fffffffffffffffffffffffffffffffffffffffffffffffffffffffffffffffff821415612978576129776125d0565b5b600182019050919050565b7f4e487b7100000000000000000000000000000000000000000000000000000000600052601260045260246000fd5b60006129bd82611a45565b91506129c883611a45565b9250826129d8576129d7612983565b5b828204905092915050565b60006129ee82611a45565b91506129f983611a45565b925082612a0957612a08612983565b5b828206905092915050565b7f4e487b7100000000000000000000000000000000000000000000000000000000600052603260045260246000fd5b7f4552433732313a206d696e7420746f20746865207a65726f2061646472657373600082015250565b6000612a79602083611b53565b9150612a8482612a43565b602082019050919050565b60006020820190508181036000830152612aa881612a6c565b9050919050565b7f4552433732313a20746f6b656e20616c7265616479206d696e74656400000000600082015250565b6000612ae5601c83611b53565b9150612af082612aaf565b602082019050919050565b60006020820190508181036000830152612b1481612ad8565b905091905056fe416e204e465420772f20494420257320686173206265656e206d696e74656420746f202573a26469706673582212207621aca5763c4d7508b7f3c12caddbf6f5d6bd42d5134651bca74f21c3bff0c364736f6c634300080900334120436f6c6c656374696f6e20772f206e616d6520257320686173206265656e2063726561746564206c696e6b656420746f2074686520636f6e747261637465202573",
  "linkReferences": {},
  "deployedLinkReferences": {}
}