{
  "_format": "hh-sol-artifact-1",
  "contractName": "NFTMarket",
  "sourceName": "src/backend/contracts/NFTMarket.sol",
  "abi": [
    {
      "inputs": [],
      "stateMutability": "nonpayable",
      "type": "constructor"
    },
    {
      "anonymous": false,
      "inputs": [
        {
          "indexed": true,
          "internalType": "uint256",
          "name": "itemId",
          "type": "uint256"
        },
        {
          "indexed": true,
          "internalType": "contract IERC721",
          "name": "nftContract",
          "type": "address"
        },
        {
          "indexed": true,
          "internalType": "uint256",
          "name": "tokenId",
          "type": "uint256"
        },
        {
          "indexed": false,
          "internalType": "address",
          "name": "seller",
          "type": "address"
        },
        {
          "indexed": false,
          "internalType": "address",
          "name": "owner",
          "type": "address"
        },
        {
          "indexed": false,
          "internalType": "uint256",
          "name": "price",
          "type": "uint256"
        },
        {
          "indexed": false,
          "internalType": "uint256",
          "name": "collectionId",
          "type": "uint256"
        }
      ],
      "name": "MarketItemCreated",
      "type": "event"
    },
    {
      "anonymous": false,
      "inputs": [
        {
          "indexed": true,
          "internalType": "uint256",
          "name": "itemId",
          "type": "uint256"
        },
        {
          "indexed": true,
          "internalType": "contract IERC721",
          "name": "nftContract",
          "type": "address"
        },
        {
          "indexed": true,
          "internalType": "uint256",
          "name": "tokenId",
          "type": "uint256"
        },
        {
          "indexed": false,
          "internalType": "address",
          "name": "seller",
          "type": "address"
        },
        {
          "indexed": false,
          "internalType": "address",
          "name": "owner",
          "type": "address"
        },
        {
          "indexed": false,
          "internalType": "uint256",
          "name": "price",
          "type": "uint256"
        },
        {
          "indexed": false,
          "internalType": "bool",
          "name": "sold",
          "type": "bool"
        }
      ],
      "name": "ProductSold",
      "type": "event"
    },
    {
      "inputs": [],
      "name": "_collectionIds",
      "outputs": [
        {
          "internalType": "uint256",
          "name": "_value",
          "type": "uint256"
        }
      ],
      "stateMutability": "view",
      "type": "function"
    },
    {
      "inputs": [],
      "name": "_itemIds",
      "outputs": [
        {
          "internalType": "uint256",
          "name": "_value",
          "type": "uint256"
        }
      ],
      "stateMutability": "view",
      "type": "function"
    },
    {
      "inputs": [],
      "name": "_itemsSold",
      "outputs": [
        {
          "internalType": "uint256",
          "name": "_value",
          "type": "uint256"
        }
      ],
      "stateMutability": "view",
      "type": "function"
    },
    {
      "inputs": [
        {
          "internalType": "address",
          "name": "_nftContract",
          "type": "address"
        },
        {
          "internalType": "string",
          "name": "_description",
          "type": "string"
        }
      ],
      "name": "addCollectionToMapping",
      "outputs": [],
      "stateMutability": "nonpayable",
      "type": "function"
    },
    {
      "inputs": [
        {
          "internalType": "contract IERC721",
          "name": "nftContract",
          "type": "address"
        },
        {
          "internalType": "uint256",
          "name": "tokenId",
          "type": "uint256"
        },
        {
          "internalType": "uint256",
          "name": "price",
          "type": "uint256"
        },
        {
          "internalType": "uint256",
          "name": "collectionId",
          "type": "uint256"
        }
      ],
      "name": "createMarketItem",
      "outputs": [],
      "stateMutability": "payable",
      "type": "function"
    },
    {
      "inputs": [
        {
          "internalType": "contract IERC721",
          "name": "nftContract",
          "type": "address"
        },
        {
          "internalType": "uint256",
          "name": "itemId",
          "type": "uint256"
        }
      ],
      "name": "createMarketSale",
      "outputs": [],
      "stateMutability": "payable",
      "type": "function"
    },
    {
      "inputs": [],
      "name": "fetchItemsCreated",
      "outputs": [
        {
          "components": [
            {
              "internalType": "uint256",
              "name": "itemId",
              "type": "uint256"
            },
            {
              "internalType": "contract IERC721",
              "name": "nftContract",
              "type": "address"
            },
            {
              "internalType": "uint256",
              "name": "tokenId",
              "type": "uint256"
            },
            {
              "internalType": "address payable",
              "name": "seller",
              "type": "address"
            },
            {
              "internalType": "address payable",
              "name": "owner",
              "type": "address"
            },
            {
              "internalType": "uint256",
              "name": "price",
              "type": "uint256"
            },
            {
              "internalType": "bool",
              "name": "sold",
              "type": "bool"
            },
            {
              "internalType": "uint256",
              "name": "collectionId",
              "type": "uint256"
            }
          ],
          "internalType": "struct NFTMarket.MarketItem[]",
          "name": "",
          "type": "tuple[]"
        }
      ],
      "stateMutability": "view",
      "type": "function"
    },
    {
      "inputs": [],
      "name": "fetchMarketItems",
      "outputs": [
        {
          "components": [
            {
              "internalType": "uint256",
              "name": "itemId",
              "type": "uint256"
            },
            {
              "internalType": "contract IERC721",
              "name": "nftContract",
              "type": "address"
            },
            {
              "internalType": "uint256",
              "name": "tokenId",
              "type": "uint256"
            },
            {
              "internalType": "address payable",
              "name": "seller",
              "type": "address"
            },
            {
              "internalType": "address payable",
              "name": "owner",
              "type": "address"
            },
            {
              "internalType": "uint256",
              "name": "price",
              "type": "uint256"
            },
            {
              "internalType": "bool",
              "name": "sold",
              "type": "bool"
            },
            {
              "internalType": "uint256",
              "name": "collectionId",
              "type": "uint256"
            }
          ],
          "internalType": "struct NFTMarket.MarketItem[]",
          "name": "",
          "type": "tuple[]"
        }
      ],
      "stateMutability": "view",
      "type": "function"
    },
    {
      "inputs": [],
      "name": "fetchMyNFTs",
      "outputs": [
        {
          "components": [
            {
              "internalType": "uint256",
              "name": "itemId",
              "type": "uint256"
            },
            {
              "internalType": "contract IERC721",
              "name": "nftContract",
              "type": "address"
            },
            {
              "internalType": "uint256",
              "name": "tokenId",
              "type": "uint256"
            },
            {
              "internalType": "address payable",
              "name": "seller",
              "type": "address"
            },
            {
              "internalType": "address payable",
              "name": "owner",
              "type": "address"
            },
            {
              "internalType": "uint256",
              "name": "price",
              "type": "uint256"
            },
            {
              "internalType": "bool",
              "name": "sold",
              "type": "bool"
            },
            {
              "internalType": "uint256",
              "name": "collectionId",
              "type": "uint256"
            }
          ],
          "internalType": "struct NFTMarket.MarketItem[]",
          "name": "",
          "type": "tuple[]"
        }
      ],
      "stateMutability": "view",
      "type": "function"
    },
    {
      "inputs": [
        {
          "internalType": "uint256",
          "name": "id",
          "type": "uint256"
        }
      ],
      "name": "fetchSingleItem",
      "outputs": [
        {
          "components": [
            {
              "internalType": "uint256",
              "name": "itemId",
              "type": "uint256"
            },
            {
              "internalType": "contract IERC721",
              "name": "nftContract",
              "type": "address"
            },
            {
              "internalType": "uint256",
              "name": "tokenId",
              "type": "uint256"
            },
            {
              "internalType": "address payable",
              "name": "seller",
              "type": "address"
            },
            {
              "internalType": "address payable",
              "name": "owner",
              "type": "address"
            },
            {
              "internalType": "uint256",
              "name": "price",
              "type": "uint256"
            },
            {
              "internalType": "bool",
              "name": "sold",
              "type": "bool"
            },
            {
              "internalType": "uint256",
              "name": "collectionId",
              "type": "uint256"
            }
          ],
          "internalType": "struct NFTMarket.MarketItem",
          "name": "",
          "type": "tuple"
        }
      ],
      "stateMutability": "view",
      "type": "function"
    },
    {
      "inputs": [],
      "name": "getListingPrice",
      "outputs": [
        {
          "internalType": "uint256",
          "name": "",
          "type": "uint256"
        }
      ],
      "stateMutability": "view",
      "type": "function"
    },
    {
      "inputs": [
        {
          "internalType": "address",
          "name": "_nftContract",
          "type": "address"
        }
      ],
      "name": "getMyCollectionName",
      "outputs": [
        {
          "internalType": "string",
          "name": "",
          "type": "string"
        }
      ],
      "stateMutability": "nonpayable",
      "type": "function"
    },
    {
      "inputs": [
        {
          "internalType": "uint256",
          "name": "",
          "type": "uint256"
        }
      ],
      "name": "idCollection",
      "outputs": [
        {
          "internalType": "uint256",
          "name": "collectionId",
          "type": "uint256"
        },
        {
          "internalType": "string",
          "name": "name",
          "type": "string"
        },
        {
          "internalType": "string",
          "name": "description",
          "type": "string"
        }
      ],
      "stateMutability": "view",
      "type": "function"
    },
    {
      "inputs": [
        {
          "internalType": "uint256",
          "name": "",
          "type": "uint256"
        }
      ],
      "name": "idMarketItem",
      "outputs": [
        {
          "internalType": "uint256",
          "name": "itemId",
          "type": "uint256"
        },
        {
          "internalType": "contract IERC721",
          "name": "nftContract",
          "type": "address"
        },
        {
          "internalType": "uint256",
          "name": "tokenId",
          "type": "uint256"
        },
        {
          "internalType": "address payable",
          "name": "seller",
          "type": "address"
        },
        {
          "internalType": "address payable",
          "name": "owner",
          "type": "address"
        },
        {
          "internalType": "uint256",
          "name": "price",
          "type": "uint256"
        },
        {
          "internalType": "bool",
          "name": "sold",
          "type": "bool"
        },
        {
          "internalType": "uint256",
          "name": "collectionId",
          "type": "uint256"
        }
      ],
      "stateMutability": "view",
      "type": "function"
    },
    {
      "inputs": [],
      "name": "nft",
      "outputs": [
        {
          "internalType": "contract INFT",
          "name": "",
          "type": "address"
        }
      ],
      "stateMutability": "view",
      "type": "function"
    },
    {
      "inputs": [
        {
          "internalType": "uint256",
          "name": "_price",
          "type": "uint256"
        }
      ],
      "name": "setListingPrice",
      "outputs": [
        {
          "internalType": "uint256",
          "name": "",
          "type": "uint256"
        }
      ],
      "stateMutability": "nonpayable",
      "type": "function"
    }
  ],
  "bytecode": "0x60806040526658d15e1762800060075534801561001b57600080fd5b50600160008190555033600460006101000a81548173ffffffffffffffffffffffffffffffffffffffff021916908373ffffffffffffffffffffffffffffffffffffffff160217905550612a5a806100746000396000f3fe6080604052600436106100f35760003560e01c806347ccca021161008a57806387506a0d1161005957806387506a0d1461033c578063a2bf932a14610367578063c23b139e146103a4578063f064c32e146103c0576100f3565b806347ccca021461028d578063599ba234146102b85780637c726b69146102d457806381a387d714610311576100f3565b8063202e3740116100c6578063202e3740146101bb5780632bcc5116146101e657806334a7f193146102255780634495a0cc14610250576100f3565b80630338c5c6146100f8578063087ae8a2146101215780630f08efe01461016557806312e8558514610190575b600080fd5b34801561010457600080fd5b5061011f600480360381019061011a9190611e3f565b6103eb565b005b34801561012d57600080fd5b5061014860048036038101906101439190611ed1565b61048b565b60405161015c989796959493929190611fa8565b60405180910390f35b34801561017157600080fd5b5061017a610540565b60405161018791906121b4565b60405180910390f35b34801561019c57600080fd5b506101a561082b565b6040516101b291906121d6565b60405180910390f35b3480156101c757600080fd5b506101d0610835565b6040516101dd91906121b4565b60405180910390f35b3480156101f257600080fd5b5061020d60048036038101906102089190611ed1565b610ba4565b60405161021c93929190612279565b60405180910390f35b34801561023157600080fd5b5061023a610cde565b60405161024791906121d6565b60405180910390f35b34801561025c57600080fd5b50610277600480360381019061027291906122be565b610cea565b60405161028491906122eb565b60405180910390f35b34801561029957600080fd5b506102a2610e7a565b6040516102af919061232e565b60405180910390f35b6102d260048036038101906102cd9190612387565b610ea0565b005b3480156102e057600080fd5b506102fb60048036038101906102f69190611ed1565b611215565b60405161030891906121d6565b60405180910390f35b34801561031d57600080fd5b5061032661125d565b60405161033391906121d6565b60405180910390f35b34801561034857600080fd5b50610351611269565b60405161035e91906121d6565b60405180910390f35b34801561037357600080fd5b5061038e60048036038101906103899190611ed1565b611275565b60405161039b9190612490565b60405180910390f35b6103be60048036038101906103b991906124ac565b6113e8565b005b3480156103cc57600080fd5b506103d56117c8565b6040516103e291906121b4565b60405180910390f35b6103f56003611b37565b60006104016003611b4d565b9050600061040e84610cea565b905060405180606001604052808381526020018281526020018481525060096000848152602001908152602001600020600082015181600001556020820151816001019080519060200190610464929190611b5b565b506040820151816002019080519060200190610481929190611b5b565b5090505050505050565b60086020528060005260406000206000915090508060000154908060010160009054906101000a900473ffffffffffffffffffffffffffffffffffffffff16908060020154908060030160009054906101000a900473ffffffffffffffffffffffffffffffffffffffff16908060040160009054906101000a900473ffffffffffffffffffffffffffffffffffffffff16908060050154908060060160009054906101000a900460ff16908060070154905088565b6060600061054e6001611b4d565b9050600061055c6002611b4d565b6105666001611b4d565b610570919061251b565b90506000808267ffffffffffffffff81111561058f5761058e611d14565b5b6040519080825280602002602001820160405280156105c857816020015b6105b5611be1565b8152602001906001900390816105ad5790505b50905060005b8481101561082057600073ffffffffffffffffffffffffffffffffffffffff16600860006001846105ff919061254f565b815260200190815260200160002060040160009054906101000a900473ffffffffffffffffffffffffffffffffffffffff1673ffffffffffffffffffffffffffffffffffffffff16141561080d57600060086000600184610660919061254f565b815260200190815260200160002060000154905060006008600083815260200190815260200160002090508060405180610100016040529081600082015481526020016001820160009054906101000a900473ffffffffffffffffffffffffffffffffffffffff1673ffffffffffffffffffffffffffffffffffffffff1673ffffffffffffffffffffffffffffffffffffffff168152602001600282015481526020016003820160009054906101000a900473ffffffffffffffffffffffffffffffffffffffff1673ffffffffffffffffffffffffffffffffffffffff1673ffffffffffffffffffffffffffffffffffffffff1681526020016004820160009054906101000a900473ffffffffffffffffffffffffffffffffffffffff1673ffffffffffffffffffffffffffffffffffffffff1673ffffffffffffffffffffffffffffffffffffffff168152602001600582015481526020016006820160009054906101000a900460ff161515151581526020016007820154815250508486815181106107f0576107ef6125a5565b5b6020026020010181905250600185610808919061254f565b945050505b8080610818906125d4565b9150506105ce565b508094505050505090565b6000600754905090565b606060006108436001611b4d565b905060008060005b838110156108ec573373ffffffffffffffffffffffffffffffffffffffff166008600060018461087b919061254f565b815260200190815260200160002060040160009054906101000a900473ffffffffffffffffffffffffffffffffffffffff1673ffffffffffffffffffffffffffffffffffffffff1614156108d9576001836108d6919061254f565b92505b80806108e4906125d4565b91505061084b565b5060008267ffffffffffffffff81111561090957610908611d14565b5b60405190808252806020026020018201604052801561094257816020015b61092f611be1565b8152602001906001900390816109275790505b50905060005b84811015610b99573373ffffffffffffffffffffffffffffffffffffffff1660086000600184610978919061254f565b815260200190815260200160002060040160009054906101000a900473ffffffffffffffffffffffffffffffffffffffff1673ffffffffffffffffffffffffffffffffffffffff161415610b86576000600860006001846109d9919061254f565b815260200190815260200160002060000154905060006008600083815260200190815260200160002090508060405180610100016040529081600082015481526020016001820160009054906101000a900473ffffffffffffffffffffffffffffffffffffffff1673ffffffffffffffffffffffffffffffffffffffff1673ffffffffffffffffffffffffffffffffffffffff168152602001600282015481526020016003820160009054906101000a900473ffffffffffffffffffffffffffffffffffffffff1673ffffffffffffffffffffffffffffffffffffffff1673ffffffffffffffffffffffffffffffffffffffff1681526020016004820160009054906101000a900473ffffffffffffffffffffffffffffffffffffffff1673ffffffffffffffffffffffffffffffffffffffff1673ffffffffffffffffffffffffffffffffffffffff168152602001600582015481526020016006820160009054906101000a900460ff16151515158152602001600782015481525050848681518110610b6957610b686125a5565b5b6020026020010181905250600185610b81919061254f565b945050505b8080610b91906125d4565b915050610948565b508094505050505090565b6009602052806000526040600020600091509050806000015490806001018054610bcd9061264c565b80601f0160208091040260200160405190810160405280929190818152602001828054610bf99061264c565b8015610c465780601f10610c1b57610100808354040283529160200191610c46565b820191906000526020600020905b815481529060010190602001808311610c2957829003601f168201915b505050505090806002018054610c5b9061264c565b80601f0160208091040260200160405190810160405280929190818152602001828054610c879061264c565b8015610cd45780601f10610ca957610100808354040283529160200191610cd4565b820191906000526020600020905b815481529060010190602001808311610cb757829003601f168201915b5050505050905083565b60018060000154905081565b606081600560006101000a81548173ffffffffffffffffffffffffffffffffffffffff021916908373ffffffffffffffffffffffffffffffffffffffff160217905550600560009054906101000a900473ffffffffffffffffffffffffffffffffffffffff1673ffffffffffffffffffffffffffffffffffffffff1663e5326ab16040518163ffffffff1660e01b815260040160006040518083038186803b158015610d9557600080fd5b505afa158015610da9573d6000803e3d6000fd5b505050506040513d6000823e3d601f19601f82011682018060405250810190610dd291906126ee565b60069080519060200190610de7929190611b5b565b5060068054610df59061264c565b80601f0160208091040260200160405190810160405280929190818152602001828054610e219061264c565b8015610e6e5780601f10610e4357610100808354040283529160200191610e6e565b820191906000526020600020905b815481529060010190602001808311610e5157829003601f168201915b50505050509050919050565b600560009054906101000a900473ffffffffffffffffffffffffffffffffffffffff1681565b60026000541415610ee6576040517f08c379a0000000000000000000000000000000000000000000000000000000008152600401610edd90612783565b60405180910390fd5b600260008190555060008211610f31576040517f08c379a0000000000000000000000000000000000000000000000000000000008152600401610f28906127ef565b60405180910390fd5b6007543414610f75576040517f08c379a0000000000000000000000000000000000000000000000000000000008152600401610f6c90612881565b60405180910390fd5b610f7f6001611b37565b6000610f8b6001611b4d565b90506040518061010001604052808281526020018673ffffffffffffffffffffffffffffffffffffffff1681526020018581526020013373ffffffffffffffffffffffffffffffffffffffff168152602001600073ffffffffffffffffffffffffffffffffffffffff16815260200184815260200160001515815260200183815250600860008381526020019081526020016000206000820151816000015560208201518160010160006101000a81548173ffffffffffffffffffffffffffffffffffffffff021916908373ffffffffffffffffffffffffffffffffffffffff1602179055506040820151816002015560608201518160030160006101000a81548173ffffffffffffffffffffffffffffffffffffffff021916908373ffffffffffffffffffffffffffffffffffffffff16021790555060808201518160040160006101000a81548173ffffffffffffffffffffffffffffffffffffffff021916908373ffffffffffffffffffffffffffffffffffffffff16021790555060a0820151816005015560c08201518160060160006101000a81548160ff02191690831515021790555060e082015181600701559050508473ffffffffffffffffffffffffffffffffffffffff166323b872dd3330876040518463ffffffff1660e01b815260040161117d939291906128b0565b600060405180830381600087803b15801561119757600080fd5b505af11580156111ab573d6000803e3d6000fd5b50505050838573ffffffffffffffffffffffffffffffffffffffff16827fc3ff4a764c9b9e1277108ea23607246687fc68d2d8d7ad5ef37a8702d444375933600088886040516111fe94939291906128e7565b60405180910390a450600160008190555050505050565b60003073ffffffffffffffffffffffffffffffffffffffff163373ffffffffffffffffffffffffffffffffffffffff16141561125357816007819055505b6007549050919050565b60038060000154905081565b60028060000154905081565b61127d611be1565b6008600083815260200190815260200160002060405180610100016040529081600082015481526020016001820160009054906101000a900473ffffffffffffffffffffffffffffffffffffffff1673ffffffffffffffffffffffffffffffffffffffff1673ffffffffffffffffffffffffffffffffffffffff168152602001600282015481526020016003820160009054906101000a900473ffffffffffffffffffffffffffffffffffffffff1673ffffffffffffffffffffffffffffffffffffffff1673ffffffffffffffffffffffffffffffffffffffff1681526020016004820160009054906101000a900473ffffffffffffffffffffffffffffffffffffffff1673ffffffffffffffffffffffffffffffffffffffff1673ffffffffffffffffffffffffffffffffffffffff168152602001600582015481526020016006820160009054906101000a900460ff161515151581526020016007820154815250509050919050565b6002600054141561142e576040517f08c379a000000000000000000000000000000000000000000000000000000000815260040161142590612783565b60405180910390fd5b60026000819055506000600860008381526020019081526020016000206005015490506000600860008481526020019081526020016000206002015490508134146114ae576040517f08c379a00000000000000000000000000000000000000000000000000000000081526004016114a59061299e565b60405180910390fd5b6008600084815260200190815260200160002060030160009054906101000a900473ffffffffffffffffffffffffffffffffffffffff1673ffffffffffffffffffffffffffffffffffffffff166108fc349081150290604051600060405180830381858888f1935050505015801561152a573d6000803e3d6000fd5b508373ffffffffffffffffffffffffffffffffffffffff166323b872dd3033846040518463ffffffff1660e01b8152600401611568939291906128b0565b600060405180830381600087803b15801561158257600080fd5b505af1158015611596573d6000803e3d6000fd5b50505050336008600085815260200190815260200160002060040160006101000a81548173ffffffffffffffffffffffffffffffffffffffff021916908373ffffffffffffffffffffffffffffffffffffffff16021790555060016008600085815260200190815260200160002060060160006101000a81548160ff0219169083151502179055506116286002611b37565b600460009054906101000a900473ffffffffffffffffffffffffffffffffffffffff1673ffffffffffffffffffffffffffffffffffffffff166108fc6007549081150290604051600060405180830381858888f19350505050158015611692573d6000803e3d6000fd5b5060086000848152602001908152602001600020600201546008600085815260200190815260200160002060010160009054906101000a900473ffffffffffffffffffffffffffffffffffffffff1673ffffffffffffffffffffffffffffffffffffffff1660086000868152602001908152602001600020600001547fcaf4d1ccc98a7187b788ee4dd262b11c496d6c35ccc2b59b083d6a7e2431be036008600088815260200190815260200160002060030160009054906101000a900473ffffffffffffffffffffffffffffffffffffffff1633600860008a815260200190815260200160002060050154600860008b815260200190815260200160002060060160009054906101000a900460ff166040516117b294939291906129df565b60405180910390a4505060016000819055505050565b606060006117d66001611b4d565b905060008060005b8381101561187f573373ffffffffffffffffffffffffffffffffffffffff166008600060018461180e919061254f565b815260200190815260200160002060030160009054906101000a900473ffffffffffffffffffffffffffffffffffffffff1673ffffffffffffffffffffffffffffffffffffffff16141561186c57600183611869919061254f565b92505b8080611877906125d4565b9150506117de565b5060008267ffffffffffffffff81111561189c5761189b611d14565b5b6040519080825280602002602001820160405280156118d557816020015b6118c2611be1565b8152602001906001900390816118ba5790505b50905060005b84811015611b2c573373ffffffffffffffffffffffffffffffffffffffff166008600060018461190b919061254f565b815260200190815260200160002060030160009054906101000a900473ffffffffffffffffffffffffffffffffffffffff1673ffffffffffffffffffffffffffffffffffffffff161415611b195760006008600060018461196c919061254f565b815260200190815260200160002060000154905060006008600083815260200190815260200160002090508060405180610100016040529081600082015481526020016001820160009054906101000a900473ffffffffffffffffffffffffffffffffffffffff1673ffffffffffffffffffffffffffffffffffffffff1673ffffffffffffffffffffffffffffffffffffffff168152602001600282015481526020016003820160009054906101000a900473ffffffffffffffffffffffffffffffffffffffff1673ffffffffffffffffffffffffffffffffffffffff1673ffffffffffffffffffffffffffffffffffffffff1681526020016004820160009054906101000a900473ffffffffffffffffffffffffffffffffffffffff1673ffffffffffffffffffffffffffffffffffffffff1673ffffffffffffffffffffffffffffffffffffffff168152602001600582015481526020016006820160009054906101000a900460ff16151515158152602001600782015481525050848681518110611afc57611afb6125a5565b5b6020026020010181905250600185611b14919061254f565b945050505b8080611b24906125d4565b9150506118db565b508094505050505090565b6001816000016000828254019250508190555050565b600081600001549050919050565b828054611b679061264c565b90600052602060002090601f016020900481019282611b895760008555611bd0565b82601f10611ba257805160ff1916838001178555611bd0565b82800160010185558215611bd0579182015b82811115611bcf578251825591602001919060010190611bb4565b5b509050611bdd9190611c6a565b5090565b60405180610100016040528060008152602001600073ffffffffffffffffffffffffffffffffffffffff16815260200160008152602001600073ffffffffffffffffffffffffffffffffffffffff168152602001600073ffffffffffffffffffffffffffffffffffffffff16815260200160008152602001600015158152602001600081525090565b5b80821115611c83576000816000905550600101611c6b565b5090565b6000604051905090565b600080fd5b600080fd5b600073ffffffffffffffffffffffffffffffffffffffff82169050919050565b6000611cc682611c9b565b9050919050565b611cd681611cbb565b8114611ce157600080fd5b50565b600081359050611cf381611ccd565b92915050565b600080fd5b600080fd5b6000601f19601f8301169050919050565b7f4e487b7100000000000000000000000000000000000000000000000000000000600052604160045260246000fd5b611d4c82611d03565b810181811067ffffffffffffffff82111715611d6b57611d6a611d14565b5b80604052505050565b6000611d7e611c87565b9050611d8a8282611d43565b919050565b600067ffffffffffffffff821115611daa57611da9611d14565b5b611db382611d03565b9050602081019050919050565b82818337600083830152505050565b6000611de2611ddd84611d8f565b611d74565b905082815260208101848484011115611dfe57611dfd611cfe565b5b611e09848285611dc0565b509392505050565b600082601f830112611e2657611e25611cf9565b5b8135611e36848260208601611dcf565b91505092915050565b60008060408385031215611e5657611e55611c91565b5b6000611e6485828601611ce4565b925050602083013567ffffffffffffffff811115611e8557611e84611c96565b5b611e9185828601611e11565b9150509250929050565b6000819050919050565b611eae81611e9b565b8114611eb957600080fd5b50565b600081359050611ecb81611ea5565b92915050565b600060208284031215611ee757611ee6611c91565b5b6000611ef584828501611ebc565b91505092915050565b611f0781611e9b565b82525050565b6000819050919050565b6000611f32611f2d611f2884611c9b565b611f0d565b611c9b565b9050919050565b6000611f4482611f17565b9050919050565b6000611f5682611f39565b9050919050565b611f6681611f4b565b82525050565b6000611f7782611c9b565b9050919050565b611f8781611f6c565b82525050565b60008115159050919050565b611fa281611f8d565b82525050565b600061010082019050611fbe600083018b611efe565b611fcb602083018a611f5d565b611fd86040830189611efe565b611fe56060830188611f7e565b611ff26080830187611f7e565b611fff60a0830186611efe565b61200c60c0830185611f99565b61201960e0830184611efe565b9998505050505050505050565b600081519050919050565b600082825260208201905092915050565b6000819050602082019050919050565b61205b81611e9b565b82525050565b61206a81611f4b565b82525050565b61207981611f6c565b82525050565b61208881611f8d565b82525050565b610100820160008201516120a56000850182612052565b5060208201516120b86020850182612061565b5060408201516120cb6040850182612052565b5060608201516120de6060850182612070565b5060808201516120f16080850182612070565b5060a082015161210460a0850182612052565b5060c082015161211760c085018261207f565b5060e082015161212a60e0850182612052565b50505050565b600061213c838361208e565b6101008301905092915050565b6000602082019050919050565b600061216182612026565b61216b8185612031565b935061217683612042565b8060005b838110156121a757815161218e8882612130565b975061219983612149565b92505060018101905061217a565b5085935050505092915050565b600060208201905081810360008301526121ce8184612156565b905092915050565b60006020820190506121eb6000830184611efe565b92915050565b600081519050919050565b600082825260208201905092915050565b60005b8381101561222b578082015181840152602081019050612210565b8381111561223a576000848401525b50505050565b600061224b826121f1565b61225581856121fc565b935061226581856020860161220d565b61226e81611d03565b840191505092915050565b600060608201905061228e6000830186611efe565b81810360208301526122a08185612240565b905081810360408301526122b48184612240565b9050949350505050565b6000602082840312156122d4576122d3611c91565b5b60006122e284828501611ce4565b91505092915050565b600060208201905081810360008301526123058184612240565b905092915050565b600061231882611f39565b9050919050565b6123288161230d565b82525050565b6000602082019050612343600083018461231f565b92915050565b600061235482611cbb565b9050919050565b61236481612349565b811461236f57600080fd5b50565b6000813590506123818161235b565b92915050565b600080600080608085870312156123a1576123a0611c91565b5b60006123af87828801612372565b94505060206123c087828801611ebc565b93505060406123d187828801611ebc565b92505060606123e287828801611ebc565b91505092959194509250565b610100820160008201516124056000850182612052565b5060208201516124186020850182612061565b50604082015161242b6040850182612052565b50606082015161243e6060850182612070565b5060808201516124516080850182612070565b5060a082015161246460a0850182612052565b5060c082015161247760c085018261207f565b5060e082015161248a60e0850182612052565b50505050565b6000610100820190506124a660008301846123ee565b92915050565b600080604083850312156124c3576124c2611c91565b5b60006124d185828601612372565b92505060206124e285828601611ebc565b9150509250929050565b7f4e487b7100000000000000000000000000000000000000000000000000000000600052601160045260246000fd5b600061252682611e9b565b915061253183611e9b565b925082821015612544576125436124ec565b5b828203905092915050565b600061255a82611e9b565b915061256583611e9b565b9250827fffffffffffffffffffffffffffffffffffffffffffffffffffffffffffffffff0382111561259a576125996124ec565b5b828201905092915050565b7f4e487b7100000000000000000000000000000000000000000000000000000000600052603260045260246000fd5b60006125df82611e9b565b91507fffffffffffffffffffffffffffffffffffffffffffffffffffffffffffffffff821415612612576126116124ec565b5b600182019050919050565b7f4e487b7100000000000000000000000000000000000000000000000000000000600052602260045260246000fd5b6000600282049050600182168061266457607f821691505b602082108114156126785761267761261d565b5b50919050565b600061269161268c84611d8f565b611d74565b9050828152602081018484840111156126ad576126ac611cfe565b5b6126b884828561220d565b509392505050565b600082601f8301126126d5576126d4611cf9565b5b81516126e584826020860161267e565b91505092915050565b60006020828403121561270457612703611c91565b5b600082015167ffffffffffffffff81111561272257612721611c96565b5b61272e848285016126c0565b91505092915050565b7f5265656e7472616e637947756172643a207265656e7472616e742063616c6c00600082015250565b600061276d601f836121fc565b915061277882612737565b602082019050919050565b6000602082019050818103600083015261279c81612760565b9050919050565b7f5072696365206d7573742062652061626f7665207a65726f0000000000000000600082015250565b60006127d96018836121fc565b91506127e4826127a3565b602082019050919050565b60006020820190508181036000830152612808816127cc565b9050919050565b7f5072696365206d75737420626520657175616c20746f206c697374696e67207060008201527f7269636500000000000000000000000000000000000000000000000000000000602082015250565b600061286b6024836121fc565b91506128768261280f565b604082019050919050565b6000602082019050818103600083015261289a8161285e565b9050919050565b6128aa81611cbb565b82525050565b60006060820190506128c560008301866128a1565b6128d260208301856128a1565b6128df6040830184611efe565b949350505050565b60006080820190506128fc60008301876128a1565b61290960208301866128a1565b6129166040830185611efe565b6129236060830184611efe565b95945050505050565b7f506c65617365207375626d6974207468652061736b696e67207072696365206960008201527f6e206f7264657220746f20636f6d706c65746520707572636861736500000000602082015250565b6000612988603c836121fc565b91506129938261292c565b604082019050919050565b600060208201905081810360008301526129b78161297b565b9050919050565b60006129c982611f39565b9050919050565b6129d9816129be565b82525050565b60006080820190506129f460008301876129d0565b612a0160208301866129d0565b612a0e6040830185611efe565b612a1b6060830184611f99565b9594505050505056fea26469706673582212202289098173d95b5faf608eaa7158fd9d33b7137f6918d5229f2a65321e91451864736f6c63430008090033",
  "linkReferences": {},
  "deployedLinkReferences": {}
}