{
  "_format": "hh-sol-artifact-1",
  "contractName": "NFTMarket",
  "sourceName": "src/backend/contracts/NFTMarket.sol",
  "abi": [
    {
      "inputs": [],
      "stateMutability": "nonpayable",
      "type": "constructor"
    },
    {
      "anonymous": false,
      "inputs": [
        {
          "indexed": true,
          "internalType": "uint256",
          "name": "itemId",
          "type": "uint256"
        },
        {
          "indexed": true,
          "internalType": "contract IERC721",
          "name": "nftContract",
          "type": "address"
        },
        {
          "indexed": true,
          "internalType": "uint256",
          "name": "tokenId",
          "type": "uint256"
        },
        {
          "indexed": false,
          "internalType": "address",
          "name": "seller",
          "type": "address"
        },
        {
          "indexed": false,
          "internalType": "address",
          "name": "owner",
          "type": "address"
        },
        {
          "indexed": false,
          "internalType": "uint256",
          "name": "price",
          "type": "uint256"
        },
        {
          "indexed": false,
          "internalType": "uint256",
          "name": "collectionId",
          "type": "uint256"
        }
      ],
      "name": "MarketItemCreated",
      "type": "event"
    },
    {
      "anonymous": false,
      "inputs": [
        {
          "indexed": true,
          "internalType": "uint256",
          "name": "itemId",
          "type": "uint256"
        },
        {
          "indexed": true,
          "internalType": "contract IERC721",
          "name": "nftContract",
          "type": "address"
        },
        {
          "indexed": false,
          "internalType": "uint256",
          "name": "tokenId",
          "type": "uint256"
        },
        {
          "indexed": false,
          "internalType": "address",
          "name": "seller",
          "type": "address"
        },
        {
          "indexed": true,
          "internalType": "address",
          "name": "owner",
          "type": "address"
        },
        {
          "indexed": false,
          "internalType": "uint256",
          "name": "price",
          "type": "uint256"
        },
        {
          "indexed": false,
          "internalType": "bool",
          "name": "sold",
          "type": "bool"
        }
      ],
      "name": "ProductSold",
      "type": "event"
    },
    {
      "inputs": [],
      "name": "_collectionIds",
      "outputs": [
        {
          "internalType": "uint256",
          "name": "_value",
          "type": "uint256"
        }
      ],
      "stateMutability": "view",
      "type": "function"
    },
    {
      "inputs": [],
      "name": "_itemIds",
      "outputs": [
        {
          "internalType": "uint256",
          "name": "_value",
          "type": "uint256"
        }
      ],
      "stateMutability": "view",
      "type": "function"
    },
    {
      "inputs": [],
      "name": "_itemsSold",
      "outputs": [
        {
          "internalType": "uint256",
          "name": "_value",
          "type": "uint256"
        }
      ],
      "stateMutability": "view",
      "type": "function"
    },
    {
      "inputs": [
        {
          "internalType": "address",
          "name": "_nftContract",
          "type": "address"
        },
        {
          "internalType": "string",
          "name": "_description",
          "type": "string"
        }
      ],
      "name": "addCollectionToMapping",
      "outputs": [],
      "stateMutability": "nonpayable",
      "type": "function"
    },
    {
      "inputs": [
        {
          "internalType": "contract IERC721",
          "name": "nftContract",
          "type": "address"
        },
        {
          "internalType": "uint256",
          "name": "tokenId",
          "type": "uint256"
        },
        {
          "internalType": "uint256",
          "name": "price",
          "type": "uint256"
        },
        {
          "internalType": "uint256",
          "name": "collectionId",
          "type": "uint256"
        }
      ],
      "name": "createMarketItem",
      "outputs": [],
      "stateMutability": "payable",
      "type": "function"
    },
    {
      "inputs": [],
      "name": "fetchItemsCreated",
      "outputs": [
        {
          "components": [
            {
              "internalType": "uint256",
              "name": "itemId",
              "type": "uint256"
            },
            {
              "internalType": "contract IERC721",
              "name": "nftContract",
              "type": "address"
            },
            {
              "internalType": "uint256",
              "name": "tokenId",
              "type": "uint256"
            },
            {
              "internalType": "address payable",
              "name": "seller",
              "type": "address"
            },
            {
              "internalType": "address payable",
              "name": "owner",
              "type": "address"
            },
            {
              "internalType": "uint256",
              "name": "price",
              "type": "uint256"
            },
            {
              "internalType": "bool",
              "name": "sold",
              "type": "bool"
            },
            {
              "internalType": "uint256",
              "name": "collectionId",
              "type": "uint256"
            }
          ],
          "internalType": "struct NFTMarket.MarketItem[]",
          "name": "",
          "type": "tuple[]"
        }
      ],
      "stateMutability": "view",
      "type": "function"
    },
    {
      "inputs": [],
      "name": "fetchMarketItems",
      "outputs": [
        {
          "components": [
            {
              "internalType": "uint256",
              "name": "itemId",
              "type": "uint256"
            },
            {
              "internalType": "contract IERC721",
              "name": "nftContract",
              "type": "address"
            },
            {
              "internalType": "uint256",
              "name": "tokenId",
              "type": "uint256"
            },
            {
              "internalType": "address payable",
              "name": "seller",
              "type": "address"
            },
            {
              "internalType": "address payable",
              "name": "owner",
              "type": "address"
            },
            {
              "internalType": "uint256",
              "name": "price",
              "type": "uint256"
            },
            {
              "internalType": "bool",
              "name": "sold",
              "type": "bool"
            },
            {
              "internalType": "uint256",
              "name": "collectionId",
              "type": "uint256"
            }
          ],
          "internalType": "struct NFTMarket.MarketItem[]",
          "name": "",
          "type": "tuple[]"
        }
      ],
      "stateMutability": "view",
      "type": "function"
    },
    {
      "inputs": [],
      "name": "fetchMyNFTs",
      "outputs": [
        {
          "components": [
            {
              "internalType": "uint256",
              "name": "itemId",
              "type": "uint256"
            },
            {
              "internalType": "contract IERC721",
              "name": "nftContract",
              "type": "address"
            },
            {
              "internalType": "uint256",
              "name": "tokenId",
              "type": "uint256"
            },
            {
              "internalType": "address payable",
              "name": "seller",
              "type": "address"
            },
            {
              "internalType": "address payable",
              "name": "owner",
              "type": "address"
            },
            {
              "internalType": "uint256",
              "name": "price",
              "type": "uint256"
            },
            {
              "internalType": "bool",
              "name": "sold",
              "type": "bool"
            },
            {
              "internalType": "uint256",
              "name": "collectionId",
              "type": "uint256"
            }
          ],
          "internalType": "struct NFTMarket.MarketItem[]",
          "name": "",
          "type": "tuple[]"
        }
      ],
      "stateMutability": "view",
      "type": "function"
    },
    {
      "inputs": [
        {
          "internalType": "uint256",
          "name": "id",
          "type": "uint256"
        }
      ],
      "name": "fetchSingleItem",
      "outputs": [
        {
          "components": [
            {
              "internalType": "uint256",
              "name": "itemId",
              "type": "uint256"
            },
            {
              "internalType": "contract IERC721",
              "name": "nftContract",
              "type": "address"
            },
            {
              "internalType": "uint256",
              "name": "tokenId",
              "type": "uint256"
            },
            {
              "internalType": "address payable",
              "name": "seller",
              "type": "address"
            },
            {
              "internalType": "address payable",
              "name": "owner",
              "type": "address"
            },
            {
              "internalType": "uint256",
              "name": "price",
              "type": "uint256"
            },
            {
              "internalType": "bool",
              "name": "sold",
              "type": "bool"
            },
            {
              "internalType": "uint256",
              "name": "collectionId",
              "type": "uint256"
            }
          ],
          "internalType": "struct NFTMarket.MarketItem",
          "name": "",
          "type": "tuple"
        }
      ],
      "stateMutability": "view",
      "type": "function"
    },
    {
      "inputs": [],
      "name": "getListingPrice",
      "outputs": [
        {
          "internalType": "uint256",
          "name": "",
          "type": "uint256"
        }
      ],
      "stateMutability": "view",
      "type": "function"
    },
    {
      "inputs": [
        {
          "internalType": "address",
          "name": "_nftContract",
          "type": "address"
        }
      ],
      "name": "getMyCollectionName",
      "outputs": [
        {
          "internalType": "string",
          "name": "",
          "type": "string"
        }
      ],
      "stateMutability": "nonpayable",
      "type": "function"
    },
    {
      "inputs": [
        {
          "internalType": "uint256",
          "name": "_itemId",
          "type": "uint256"
        }
      ],
      "name": "getTotalPrice",
      "outputs": [
        {
          "internalType": "uint256",
          "name": "",
          "type": "uint256"
        }
      ],
      "stateMutability": "view",
      "type": "function"
    },
    {
      "inputs": [
        {
          "internalType": "uint256",
          "name": "",
          "type": "uint256"
        }
      ],
      "name": "idCollection",
      "outputs": [
        {
          "internalType": "uint256",
          "name": "collectionId",
          "type": "uint256"
        },
        {
          "internalType": "string",
          "name": "name",
          "type": "string"
        },
        {
          "internalType": "string",
          "name": "description",
          "type": "string"
        }
      ],
      "stateMutability": "view",
      "type": "function"
    },
    {
      "inputs": [
        {
          "internalType": "uint256",
          "name": "",
          "type": "uint256"
        }
      ],
      "name": "idMarketItem",
      "outputs": [
        {
          "internalType": "uint256",
          "name": "itemId",
          "type": "uint256"
        },
        {
          "internalType": "contract IERC721",
          "name": "nftContract",
          "type": "address"
        },
        {
          "internalType": "uint256",
          "name": "tokenId",
          "type": "uint256"
        },
        {
          "internalType": "address payable",
          "name": "seller",
          "type": "address"
        },
        {
          "internalType": "address payable",
          "name": "owner",
          "type": "address"
        },
        {
          "internalType": "uint256",
          "name": "price",
          "type": "uint256"
        },
        {
          "internalType": "bool",
          "name": "sold",
          "type": "bool"
        },
        {
          "internalType": "uint256",
          "name": "collectionId",
          "type": "uint256"
        }
      ],
      "stateMutability": "view",
      "type": "function"
    },
    {
      "inputs": [],
      "name": "listingPrice",
      "outputs": [
        {
          "internalType": "uint256",
          "name": "",
          "type": "uint256"
        }
      ],
      "stateMutability": "view",
      "type": "function"
    },
    {
      "inputs": [],
      "name": "nft",
      "outputs": [
        {
          "internalType": "contract INFT",
          "name": "",
          "type": "address"
        }
      ],
      "stateMutability": "view",
      "type": "function"
    },
    {
      "inputs": [
        {
          "internalType": "uint256",
          "name": "_itemId",
          "type": "uint256"
        }
      ],
      "name": "purchaseItem",
      "outputs": [],
      "stateMutability": "payable",
      "type": "function"
    },
    {
      "inputs": [
        {
          "internalType": "uint256",
          "name": "_price",
          "type": "uint256"
        }
      ],
      "name": "setListingPrice",
      "outputs": [
        {
          "internalType": "uint256",
          "name": "",
          "type": "uint256"
        }
      ],
      "stateMutability": "nonpayable",
      "type": "function"
    }
  ],
  "bytecode": "0x60806040526658d15e1762800060075534801561001b57600080fd5b50600160008190555033600460006101000a81548173ffffffffffffffffffffffffffffffffffffffff021916908373ffffffffffffffffffffffffffffffffffffffff160217905550612a01806100746000396000f3fe6080604052600436106101095760003560e01c8063599ba23411610095578063a2bf932a11610064578063a2bf932a1461037d578063c78f19f9146103ba578063ca7dd375146103e5578063d38ea5bf14610422578063f064c32e1461043e57610109565b8063599ba234146102ce5780637c726b69146102ea57806381a387d71461032757806387506a0d1461035257610109565b8063202e3740116100dc578063202e3740146101d15780632bcc5116146101fc57806334a7f1931461023b5780634495a0cc1461026657806347ccca02146102a357610109565b80630338c5c61461010e578063087ae8a2146101375780630f08efe01461017b57806312e85585146101a6575b600080fd5b34801561011a57600080fd5b5061013560048036038101906101309190611e4c565b610469565b005b34801561014357600080fd5b5061015e60048036038101906101599190611ede565b610509565b604051610172989796959493929190611fb5565b60405180910390f35b34801561018757600080fd5b506101906105be565b60405161019d91906121c1565b60405180910390f35b3480156101b257600080fd5b506101bb6108a9565b6040516101c891906121e3565b60405180910390f35b3480156101dd57600080fd5b506101e66108b3565b6040516101f391906121c1565b60405180910390f35b34801561020857600080fd5b50610223600480360381019061021e9190611ede565b610c22565b60405161023293929190612286565b60405180910390f35b34801561024757600080fd5b50610250610d5c565b60405161025d91906121e3565b60405180910390f35b34801561027257600080fd5b5061028d600480360381019061028891906122cb565b610d68565b60405161029a91906122f8565b60405180910390f35b3480156102af57600080fd5b506102b8610ef8565b6040516102c5919061233b565b60405180910390f35b6102e860048036038101906102e39190612394565b610f1e565b005b3480156102f657600080fd5b50610311600480360381019061030c9190611ede565b61124f565b60405161031e91906121e3565b60405180910390f35b34801561033357600080fd5b5061033c611297565b60405161034991906121e3565b60405180910390f35b34801561035e57600080fd5b506103676112a3565b60405161037491906121e3565b60405180910390f35b34801561038957600080fd5b506103a4600480360381019061039f9190611ede565b6112af565b6040516103b1919061249d565b60405180910390f35b3480156103c657600080fd5b506103cf611422565b6040516103dc91906121e3565b60405180910390f35b3480156103f157600080fd5b5061040c60048036038101906104079190611ede565b611428565b60405161041991906121e3565b60405180910390f35b61043c60048036038101906104379190611ede565b611455565b005b34801561044a57600080fd5b506104536117d5565b60405161046091906121c1565b60405180910390f35b6104736003611b44565b600061047f6003611b5a565b9050600061048c84610d68565b9050604051806060016040528083815260200182815260200184815250600960008481526020019081526020016000206000820151816000015560208201518160010190805190602001906104e2929190611b68565b5060408201518160020190805190602001906104ff929190611b68565b5090505050505050565b60086020528060005260406000206000915090508060000154908060010160009054906101000a900473ffffffffffffffffffffffffffffffffffffffff16908060020154908060030160009054906101000a900473ffffffffffffffffffffffffffffffffffffffff16908060040160009054906101000a900473ffffffffffffffffffffffffffffffffffffffff16908060050154908060060160009054906101000a900460ff16908060070154905088565b606060006105cc6001611b5a565b905060006105da6002611b5a565b6105e46001611b5a565b6105ee91906124e8565b90506000808267ffffffffffffffff81111561060d5761060c611d21565b5b60405190808252806020026020018201604052801561064657816020015b610633611bee565b81526020019060019003908161062b5790505b50905060005b8481101561089e57600073ffffffffffffffffffffffffffffffffffffffff166008600060018461067d919061251c565b815260200190815260200160002060040160009054906101000a900473ffffffffffffffffffffffffffffffffffffffff1673ffffffffffffffffffffffffffffffffffffffff16141561088b576000600860006001846106de919061251c565b815260200190815260200160002060000154905060006008600083815260200190815260200160002090508060405180610100016040529081600082015481526020016001820160009054906101000a900473ffffffffffffffffffffffffffffffffffffffff1673ffffffffffffffffffffffffffffffffffffffff1673ffffffffffffffffffffffffffffffffffffffff168152602001600282015481526020016003820160009054906101000a900473ffffffffffffffffffffffffffffffffffffffff1673ffffffffffffffffffffffffffffffffffffffff1673ffffffffffffffffffffffffffffffffffffffff1681526020016004820160009054906101000a900473ffffffffffffffffffffffffffffffffffffffff1673ffffffffffffffffffffffffffffffffffffffff1673ffffffffffffffffffffffffffffffffffffffff168152602001600582015481526020016006820160009054906101000a900460ff1615151515815260200160078201548152505084868151811061086e5761086d612572565b5b6020026020010181905250600185610886919061251c565b945050505b8080610896906125a1565b91505061064c565b508094505050505090565b6000600754905090565b606060006108c16001611b5a565b905060008060005b8381101561096a573373ffffffffffffffffffffffffffffffffffffffff16600860006001846108f9919061251c565b815260200190815260200160002060040160009054906101000a900473ffffffffffffffffffffffffffffffffffffffff1673ffffffffffffffffffffffffffffffffffffffff16141561095757600183610954919061251c565b92505b8080610962906125a1565b9150506108c9565b5060008267ffffffffffffffff81111561098757610986611d21565b5b6040519080825280602002602001820160405280156109c057816020015b6109ad611bee565b8152602001906001900390816109a55790505b50905060005b84811015610c17573373ffffffffffffffffffffffffffffffffffffffff16600860006001846109f6919061251c565b815260200190815260200160002060040160009054906101000a900473ffffffffffffffffffffffffffffffffffffffff1673ffffffffffffffffffffffffffffffffffffffff161415610c0457600060086000600184610a57919061251c565b815260200190815260200160002060000154905060006008600083815260200190815260200160002090508060405180610100016040529081600082015481526020016001820160009054906101000a900473ffffffffffffffffffffffffffffffffffffffff1673ffffffffffffffffffffffffffffffffffffffff1673ffffffffffffffffffffffffffffffffffffffff168152602001600282015481526020016003820160009054906101000a900473ffffffffffffffffffffffffffffffffffffffff1673ffffffffffffffffffffffffffffffffffffffff1673ffffffffffffffffffffffffffffffffffffffff1681526020016004820160009054906101000a900473ffffffffffffffffffffffffffffffffffffffff1673ffffffffffffffffffffffffffffffffffffffff1673ffffffffffffffffffffffffffffffffffffffff168152602001600582015481526020016006820160009054906101000a900460ff16151515158152602001600782015481525050848681518110610be757610be6612572565b5b6020026020010181905250600185610bff919061251c565b945050505b8080610c0f906125a1565b9150506109c6565b508094505050505090565b6009602052806000526040600020600091509050806000015490806001018054610c4b90612619565b80601f0160208091040260200160405190810160405280929190818152602001828054610c7790612619565b8015610cc45780601f10610c9957610100808354040283529160200191610cc4565b820191906000526020600020905b815481529060010190602001808311610ca757829003601f168201915b505050505090806002018054610cd990612619565b80601f0160208091040260200160405190810160405280929190818152602001828054610d0590612619565b8015610d525780601f10610d2757610100808354040283529160200191610d52565b820191906000526020600020905b815481529060010190602001808311610d3557829003601f168201915b5050505050905083565b60018060000154905081565b606081600560006101000a81548173ffffffffffffffffffffffffffffffffffffffff021916908373ffffffffffffffffffffffffffffffffffffffff160217905550600560009054906101000a900473ffffffffffffffffffffffffffffffffffffffff1673ffffffffffffffffffffffffffffffffffffffff1663e5326ab16040518163ffffffff1660e01b815260040160006040518083038186803b158015610e1357600080fd5b505afa158015610e27573d6000803e3d6000fd5b505050506040513d6000823e3d601f19601f82011682018060405250810190610e5091906126bb565b60069080519060200190610e65929190611b68565b5060068054610e7390612619565b80601f0160208091040260200160405190810160405280929190818152602001828054610e9f90612619565b8015610eec5780601f10610ec157610100808354040283529160200191610eec565b820191906000526020600020905b815481529060010190602001808311610ecf57829003601f168201915b50505050509050919050565b600560009054906101000a900473ffffffffffffffffffffffffffffffffffffffff1681565b60026000541415610f64576040517f08c379a0000000000000000000000000000000000000000000000000000000008152600401610f5b90612750565b60405180910390fd5b600260008190555060008211610faf576040517f08c379a0000000000000000000000000000000000000000000000000000000008152600401610fa6906127bc565b60405180910390fd5b610fb96001611b44565b6000610fc56001611b5a565b90506040518061010001604052808281526020018673ffffffffffffffffffffffffffffffffffffffff1681526020018581526020013373ffffffffffffffffffffffffffffffffffffffff168152602001600073ffffffffffffffffffffffffffffffffffffffff16815260200184815260200160001515815260200183815250600860008381526020019081526020016000206000820151816000015560208201518160010160006101000a81548173ffffffffffffffffffffffffffffffffffffffff021916908373ffffffffffffffffffffffffffffffffffffffff1602179055506040820151816002015560608201518160030160006101000a81548173ffffffffffffffffffffffffffffffffffffffff021916908373ffffffffffffffffffffffffffffffffffffffff16021790555060808201518160040160006101000a81548173ffffffffffffffffffffffffffffffffffffffff021916908373ffffffffffffffffffffffffffffffffffffffff16021790555060a0820151816005015560c08201518160060160006101000a81548160ff02191690831515021790555060e082015181600701559050508473ffffffffffffffffffffffffffffffffffffffff166323b872dd3330876040518463ffffffff1660e01b81526004016111b7939291906127eb565b600060405180830381600087803b1580156111d157600080fd5b505af11580156111e5573d6000803e3d6000fd5b50505050838573ffffffffffffffffffffffffffffffffffffffff16827fc3ff4a764c9b9e1277108ea23607246687fc68d2d8d7ad5ef37a8702d444375933600088886040516112389493929190612822565b60405180910390a450600160008190555050505050565b60003073ffffffffffffffffffffffffffffffffffffffff163373ffffffffffffffffffffffffffffffffffffffff16141561128d57816007819055505b6007549050919050565b60038060000154905081565b60028060000154905081565b6112b7611bee565b6008600083815260200190815260200160002060405180610100016040529081600082015481526020016001820160009054906101000a900473ffffffffffffffffffffffffffffffffffffffff1673ffffffffffffffffffffffffffffffffffffffff1673ffffffffffffffffffffffffffffffffffffffff168152602001600282015481526020016003820160009054906101000a900473ffffffffffffffffffffffffffffffffffffffff1673ffffffffffffffffffffffffffffffffffffffff1673ffffffffffffffffffffffffffffffffffffffff1681526020016004820160009054906101000a900473ffffffffffffffffffffffffffffffffffffffff1673ffffffffffffffffffffffffffffffffffffffff1673ffffffffffffffffffffffffffffffffffffffff168152602001600582015481526020016006820160009054906101000a900460ff161515151581526020016007820154815250509050919050565b60075481565b6000600754600860008481526020019081526020016000206005015461144e919061251c565b9050919050565b6002600054141561149b576040517f08c379a000000000000000000000000000000000000000000000000000000000815260040161149290612750565b60405180910390fd5b600260008190555060006114ae82611428565b905060006008600084815260200190815260200160002090508134101561150a576040517f08c379a0000000000000000000000000000000000000000000000000000000008152600401611501906128d9565b60405180910390fd5b8060060160009054906101000a900460ff161561155c576040517f08c379a000000000000000000000000000000000000000000000000000000000815260040161155390612945565b60405180910390fd5b8060030160009054906101000a900473ffffffffffffffffffffffffffffffffffffffff1673ffffffffffffffffffffffffffffffffffffffff166108fc82600501549081150290604051600060405180830381858888f193505050501580156115ca573d6000803e3d6000fd5b50600460009054906101000a900473ffffffffffffffffffffffffffffffffffffffff1673ffffffffffffffffffffffffffffffffffffffff166108fc82600501548461161791906124e8565b9081150290604051600060405180830381858888f19350505050158015611642573d6000803e3d6000fd5b5060018160060160006101000a81548160ff0219169083151502179055508060010160009054906101000a900473ffffffffffffffffffffffffffffffffffffffff1673ffffffffffffffffffffffffffffffffffffffff166323b872dd303384600201546040518463ffffffff1660e01b81526004016116c5939291906127eb565b600060405180830381600087803b1580156116df57600080fd5b505af11580156116f3573d6000803e3d6000fd5b505050503373ffffffffffffffffffffffffffffffffffffffff168160010160009054906101000a900473ffffffffffffffffffffffffffffffffffffffff1673ffffffffffffffffffffffffffffffffffffffff1682600001547fcaf4d1ccc98a7187b788ee4dd262b11c496d6c35ccc2b59b083d6a7e2431be0384600201548560030160009054906101000a900473ffffffffffffffffffffffffffffffffffffffff1686600501548760060160009054906101000a900460ff166040516117c09493929190612986565b60405180910390a45050600160008190555050565b606060006117e36001611b5a565b905060008060005b8381101561188c573373ffffffffffffffffffffffffffffffffffffffff166008600060018461181b919061251c565b815260200190815260200160002060030160009054906101000a900473ffffffffffffffffffffffffffffffffffffffff1673ffffffffffffffffffffffffffffffffffffffff16141561187957600183611876919061251c565b92505b8080611884906125a1565b9150506117eb565b5060008267ffffffffffffffff8111156118a9576118a8611d21565b5b6040519080825280602002602001820160405280156118e257816020015b6118cf611bee565b8152602001906001900390816118c75790505b50905060005b84811015611b39573373ffffffffffffffffffffffffffffffffffffffff1660086000600184611918919061251c565b815260200190815260200160002060030160009054906101000a900473ffffffffffffffffffffffffffffffffffffffff1673ffffffffffffffffffffffffffffffffffffffff161415611b2657600060086000600184611979919061251c565b815260200190815260200160002060000154905060006008600083815260200190815260200160002090508060405180610100016040529081600082015481526020016001820160009054906101000a900473ffffffffffffffffffffffffffffffffffffffff1673ffffffffffffffffffffffffffffffffffffffff1673ffffffffffffffffffffffffffffffffffffffff168152602001600282015481526020016003820160009054906101000a900473ffffffffffffffffffffffffffffffffffffffff1673ffffffffffffffffffffffffffffffffffffffff1673ffffffffffffffffffffffffffffffffffffffff1681526020016004820160009054906101000a900473ffffffffffffffffffffffffffffffffffffffff1673ffffffffffffffffffffffffffffffffffffffff1673ffffffffffffffffffffffffffffffffffffffff168152602001600582015481526020016006820160009054906101000a900460ff16151515158152602001600782015481525050848681518110611b0957611b08612572565b5b6020026020010181905250600185611b21919061251c565b945050505b8080611b31906125a1565b9150506118e8565b508094505050505090565b6001816000016000828254019250508190555050565b600081600001549050919050565b828054611b7490612619565b90600052602060002090601f016020900481019282611b965760008555611bdd565b82601f10611baf57805160ff1916838001178555611bdd565b82800160010185558215611bdd579182015b82811115611bdc578251825591602001919060010190611bc1565b5b509050611bea9190611c77565b5090565b60405180610100016040528060008152602001600073ffffffffffffffffffffffffffffffffffffffff16815260200160008152602001600073ffffffffffffffffffffffffffffffffffffffff168152602001600073ffffffffffffffffffffffffffffffffffffffff16815260200160008152602001600015158152602001600081525090565b5b80821115611c90576000816000905550600101611c78565b5090565b6000604051905090565b600080fd5b600080fd5b600073ffffffffffffffffffffffffffffffffffffffff82169050919050565b6000611cd382611ca8565b9050919050565b611ce381611cc8565b8114611cee57600080fd5b50565b600081359050611d0081611cda565b92915050565b600080fd5b600080fd5b6000601f19601f8301169050919050565b7f4e487b7100000000000000000000000000000000000000000000000000000000600052604160045260246000fd5b611d5982611d10565b810181811067ffffffffffffffff82111715611d7857611d77611d21565b5b80604052505050565b6000611d8b611c94565b9050611d978282611d50565b919050565b600067ffffffffffffffff821115611db757611db6611d21565b5b611dc082611d10565b9050602081019050919050565b82818337600083830152505050565b6000611def611dea84611d9c565b611d81565b905082815260208101848484011115611e0b57611e0a611d0b565b5b611e16848285611dcd565b509392505050565b600082601f830112611e3357611e32611d06565b5b8135611e43848260208601611ddc565b91505092915050565b60008060408385031215611e6357611e62611c9e565b5b6000611e7185828601611cf1565b925050602083013567ffffffffffffffff811115611e9257611e91611ca3565b5b611e9e85828601611e1e565b9150509250929050565b6000819050919050565b611ebb81611ea8565b8114611ec657600080fd5b50565b600081359050611ed881611eb2565b92915050565b600060208284031215611ef457611ef3611c9e565b5b6000611f0284828501611ec9565b91505092915050565b611f1481611ea8565b82525050565b6000819050919050565b6000611f3f611f3a611f3584611ca8565b611f1a565b611ca8565b9050919050565b6000611f5182611f24565b9050919050565b6000611f6382611f46565b9050919050565b611f7381611f58565b82525050565b6000611f8482611ca8565b9050919050565b611f9481611f79565b82525050565b60008115159050919050565b611faf81611f9a565b82525050565b600061010082019050611fcb600083018b611f0b565b611fd8602083018a611f6a565b611fe56040830189611f0b565b611ff26060830188611f8b565b611fff6080830187611f8b565b61200c60a0830186611f0b565b61201960c0830185611fa6565b61202660e0830184611f0b565b9998505050505050505050565b600081519050919050565b600082825260208201905092915050565b6000819050602082019050919050565b61206881611ea8565b82525050565b61207781611f58565b82525050565b61208681611f79565b82525050565b61209581611f9a565b82525050565b610100820160008201516120b2600085018261205f565b5060208201516120c5602085018261206e565b5060408201516120d8604085018261205f565b5060608201516120eb606085018261207d565b5060808201516120fe608085018261207d565b5060a082015161211160a085018261205f565b5060c082015161212460c085018261208c565b5060e082015161213760e085018261205f565b50505050565b6000612149838361209b565b6101008301905092915050565b6000602082019050919050565b600061216e82612033565b612178818561203e565b93506121838361204f565b8060005b838110156121b457815161219b888261213d565b97506121a683612156565b925050600181019050612187565b5085935050505092915050565b600060208201905081810360008301526121db8184612163565b905092915050565b60006020820190506121f86000830184611f0b565b92915050565b600081519050919050565b600082825260208201905092915050565b60005b8381101561223857808201518184015260208101905061221d565b83811115612247576000848401525b50505050565b6000612258826121fe565b6122628185612209565b935061227281856020860161221a565b61227b81611d10565b840191505092915050565b600060608201905061229b6000830186611f0b565b81810360208301526122ad818561224d565b905081810360408301526122c1818461224d565b9050949350505050565b6000602082840312156122e1576122e0611c9e565b5b60006122ef84828501611cf1565b91505092915050565b60006020820190508181036000830152612312818461224d565b905092915050565b600061232582611f46565b9050919050565b6123358161231a565b82525050565b6000602082019050612350600083018461232c565b92915050565b600061236182611cc8565b9050919050565b61237181612356565b811461237c57600080fd5b50565b60008135905061238e81612368565b92915050565b600080600080608085870312156123ae576123ad611c9e565b5b60006123bc8782880161237f565b94505060206123cd87828801611ec9565b93505060406123de87828801611ec9565b92505060606123ef87828801611ec9565b91505092959194509250565b61010082016000820151612412600085018261205f565b506020820151612425602085018261206e565b506040820151612438604085018261205f565b50606082015161244b606085018261207d565b50608082015161245e608085018261207d565b5060a082015161247160a085018261205f565b5060c082015161248460c085018261208c565b5060e082015161249760e085018261205f565b50505050565b6000610100820190506124b360008301846123fb565b92915050565b7f4e487b7100000000000000000000000000000000000000000000000000000000600052601160045260246000fd5b60006124f382611ea8565b91506124fe83611ea8565b925082821015612511576125106124b9565b5b828203905092915050565b600061252782611ea8565b915061253283611ea8565b9250827fffffffffffffffffffffffffffffffffffffffffffffffffffffffffffffffff03821115612567576125666124b9565b5b828201905092915050565b7f4e487b7100000000000000000000000000000000000000000000000000000000600052603260045260246000fd5b60006125ac82611ea8565b91507fffffffffffffffffffffffffffffffffffffffffffffffffffffffffffffffff8214156125df576125de6124b9565b5b600182019050919050565b7f4e487b7100000000000000000000000000000000000000000000000000000000600052602260045260246000fd5b6000600282049050600182168061263157607f821691505b60208210811415612645576126446125ea565b5b50919050565b600061265e61265984611d9c565b611d81565b90508281526020810184848401111561267a57612679611d0b565b5b61268584828561221a565b509392505050565b600082601f8301126126a2576126a1611d06565b5b81516126b284826020860161264b565b91505092915050565b6000602082840312156126d1576126d0611c9e565b5b600082015167ffffffffffffffff8111156126ef576126ee611ca3565b5b6126fb8482850161268d565b91505092915050565b7f5265656e7472616e637947756172643a207265656e7472616e742063616c6c00600082015250565b600061273a601f83612209565b915061274582612704565b602082019050919050565b600060208201905081810360008301526127698161272d565b9050919050565b7f5072696365206d7573742062652061626f7665207a65726f0000000000000000600082015250565b60006127a6601883612209565b91506127b182612770565b602082019050919050565b600060208201905081810360008301526127d581612799565b9050919050565b6127e581611cc8565b82525050565b600060608201905061280060008301866127dc565b61280d60208301856127dc565b61281a6040830184611f0b565b949350505050565b600060808201905061283760008301876127dc565b61284460208301866127dc565b6128516040830185611f0b565b61285e6060830184611f0b565b95945050505050565b7f6e6f7420656e6f75676820657468657220746f20636f766572206974656d207060008201527f7269636520616e64206d61726b65742066656500000000000000000000000000602082015250565b60006128c3603383612209565b91506128ce82612867565b604082019050919050565b600060208201905081810360008301526128f2816128b6565b9050919050565b7f6974656d20616c726561647920736f6c64000000000000000000000000000000600082015250565b600061292f601183612209565b915061293a826128f9565b602082019050919050565b6000602082019050818103600083015261295e81612922565b9050919050565b600061297082611f46565b9050919050565b61298081612965565b82525050565b600060808201905061299b6000830187611f0b565b6129a86020830186612977565b6129b56040830185611f0b565b6129c26060830184611fa6565b9594505050505056fea2646970667358221220b803e3c0e0cfd485f822ff8e9aa50a12c44f176d965ce4d00429af8946eb958864736f6c63430008090033",
  "linkReferences": {},
  "deployedLinkReferences": {}
}